{
  "_format": "hh-sol-artifact-1",
  "contractName": "EscrowContract",
  "sourceName": "src/EscrowContract.sol",
  "abi": [
    {
      "inputs": [
        {
          "internalType": "address",
          "name": "_oracleAddress",
          "type": "address"
        },
        {
          "internalType": "address",
          "name": "_juryContractAddress",
          "type": "address"
        }
      ],
      "stateMutability": "nonpayable",
      "type": "constructor"
    },
    {
      "inputs": [
        {
          "internalType": "address",
          "name": "owner",
          "type": "address"
        }
      ],
      "name": "OwnableInvalidOwner",
      "type": "error"
    },
    {
      "inputs": [
        {
          "internalType": "address",
          "name": "account",
          "type": "address"
        }
      ],
      "name": "OwnableUnauthorizedAccount",
      "type": "error"
    },
    {
      "inputs": [],
      "name": "ReentrancyGuardReentrantCall",
      "type": "error"
    },
    {
      "anonymous": false,
      "inputs": [
        {
          "indexed": true,
          "internalType": "uint256",
          "name": "milestoneId",
          "type": "uint256"
        },
        {
          "indexed": true,
          "internalType": "address",
          "name": "raisedBy",
          "type": "address"
        }
      ],
      "name": "DisputeRaised",
      "type": "event"
    },
    {
      "anonymous": false,
      "inputs": [
        {
          "indexed": true,
          "internalType": "uint256",
          "name": "milestoneId",
          "type": "uint256"
        },
        {
          "indexed": false,
          "internalType": "bool",
          "name": "releasedToFreelancer",
          "type": "bool"
        }
      ],
      "name": "DisputeResolved",
      "type": "event"
    },
    {
      "anonymous": false,
      "inputs": [
        {
          "indexed": true,
          "internalType": "address",
          "name": "oldJury",
          "type": "address"
        },
        {
          "indexed": true,
          "internalType": "address",
          "name": "newJury",
          "type": "address"
        }
      ],
      "name": "JuryContractAddressUpdated",
      "type": "event"
    },
    {
      "anonymous": false,
      "inputs": [
        {
          "indexed": true,
          "internalType": "uint256",
          "name": "milestoneId",
          "type": "uint256"
        },
        {
          "indexed": true,
          "internalType": "address",
          "name": "client",
          "type": "address"
        },
        {
          "indexed": true,
          "internalType": "address",
          "name": "freelancer",
          "type": "address"
        },
        {
          "indexed": false,
          "internalType": "bytes32",
          "name": "milestoneHash",
          "type": "bytes32"
        },
        {
          "indexed": false,
          "internalType": "uint256",
          "name": "deadline",
          "type": "uint256"
        }
      ],
      "name": "MilestoneCreated",
      "type": "event"
    },
    {
      "anonymous": false,
      "inputs": [
        {
          "indexed": true,
          "internalType": "uint256",
          "name": "milestoneId",
          "type": "uint256"
        },
        {
          "indexed": false,
          "internalType": "uint256",
          "name": "amount",
          "type": "uint256"
        }
      ],
      "name": "MilestoneFunded",
      "type": "event"
    },
    {
      "anonymous": false,
      "inputs": [
        {
          "indexed": true,
          "internalType": "address",
          "name": "oldOracle",
          "type": "address"
        },
        {
          "indexed": true,
          "internalType": "address",
          "name": "newOracle",
          "type": "address"
        }
      ],
      "name": "OracleAddressUpdated",
      "type": "event"
    },
    {
      "anonymous": false,
      "inputs": [
        {
          "indexed": true,
          "internalType": "address",
          "name": "previousOwner",
          "type": "address"
        },
        {
          "indexed": true,
          "internalType": "address",
          "name": "newOwner",
          "type": "address"
        }
      ],
      "name": "OwnershipTransferred",
      "type": "event"
    },
    {
      "anonymous": false,
      "inputs": [
        {
          "indexed": true,
          "internalType": "uint256",
          "name": "milestoneId",
          "type": "uint256"
        },
        {
          "indexed": false,
          "internalType": "uint256",
          "name": "amount",
          "type": "uint256"
        },
        {
          "indexed": true,
          "internalType": "address",
          "name": "freelancer",
          "type": "address"
        }
      ],
      "name": "PaymentReleased",
      "type": "event"
    },
    {
      "anonymous": false,
      "inputs": [
        {
          "indexed": true,
          "internalType": "uint256",
          "name": "milestoneId",
          "type": "uint256"
        },
        {
          "indexed": true,
          "internalType": "address",
          "name": "client",
          "type": "address"
        },
        {
          "indexed": false,
          "internalType": "uint256",
          "name": "amount",
          "type": "uint256"
        }
      ],
      "name": "TimeoutRefundIssued",
      "type": "event"
    },
    {
      "anonymous": false,
      "inputs": [
        {
          "indexed": true,
          "internalType": "uint256",
          "name": "milestoneId",
          "type": "uint256"
        },
        {
          "indexed": false,
          "internalType": "uint256",
          "name": "score",
          "type": "uint256"
        },
        {
          "indexed": false,
          "internalType": "string",
          "name": "verdict",
          "type": "string"
        }
      ],
      "name": "VerificationResultPosted",
      "type": "event"
    },
    {
      "anonymous": false,
      "inputs": [
        {
          "indexed": true,
          "internalType": "uint256",
          "name": "milestoneId",
          "type": "uint256"
        },
        {
          "indexed": false,
          "internalType": "bytes32",
          "name": "evidenceHash",
          "type": "bytes32"
        },
        {
          "indexed": false,
          "internalType": "string",
          "name": "ipfsCID",
          "type": "string"
        }
      ],
      "name": "WorkSubmitted",
      "type": "event"
    },
    {
      "inputs": [],
      "name": "APPROVE_THRESHOLD",
      "outputs": [
        {
          "internalType": "uint256",
          "name": "",
          "type": "uint256"
        }
      ],
      "stateMutability": "view",
      "type": "function"
    },
    {
      "inputs": [],
      "name": "DISPUTE_THRESHOLD",
      "outputs": [
        {
          "internalType": "uint256",
          "name": "",
          "type": "uint256"
        }
      ],
      "stateMutability": "view",
      "type": "function"
    },
    {
      "inputs": [
        {
          "internalType": "address",
          "name": "freelancer",
          "type": "address"
        },
        {
          "internalType": "bytes32",
          "name": "milestoneHash",
          "type": "bytes32"
        },
        {
          "internalType": "uint256",
          "name": "deadline",
          "type": "uint256"
        }
      ],
      "name": "createMilestone",
      "outputs": [
        {
          "internalType": "uint256",
          "name": "milestoneId",
          "type": "uint256"
        }
      ],
      "stateMutability": "nonpayable",
      "type": "function"
    },
    {
      "inputs": [
        {
          "internalType": "uint256",
          "name": "milestoneId",
          "type": "uint256"
        }
      ],
      "name": "fundMilestone",
      "outputs": [],
      "stateMutability": "payable",
      "type": "function"
    },
    {
      "inputs": [
        {
          "internalType": "uint256",
          "name": "milestoneId",
          "type": "uint256"
        }
      ],
      "name": "getMilestone",
      "outputs": [
        {
          "components": [
            {
              "internalType": "address",
              "name": "client",
              "type": "address"
            },
            {
              "internalType": "address",
              "name": "freelancer",
              "type": "address"
            },
            {
              "internalType": "bytes32",
              "name": "milestoneHash",
              "type": "bytes32"
            },
            {
              "internalType": "uint256",
              "name": "deadline",
              "type": "uint256"
            },
            {
              "internalType": "uint256",
              "name": "amount",
              "type": "uint256"
            },
            {
              "internalType": "bytes32",
              "name": "evidenceHash",
              "type": "bytes32"
            },
            {
              "internalType": "string",
              "name": "ipfsCID",
              "type": "string"
            },
            {
              "internalType": "uint256",
              "name": "score",
              "type": "uint256"
            },
            {
              "internalType": "string",
              "name": "verdict",
              "type": "string"
            },
            {
              "internalType": "enum EscrowContract.State",
              "name": "state",
              "type": "uint8"
            },
            {
              "internalType": "uint256",
              "name": "createdAt",
              "type": "uint256"
            },
            {
              "internalType": "uint256",
              "name": "fundedAt",
              "type": "uint256"
            },
            {
              "internalType": "uint256",
              "name": "submittedAt",
              "type": "uint256"
            },
            {
              "internalType": "uint256",
              "name": "resolvedAt",
              "type": "uint256"
            }
          ],
          "internalType": "struct EscrowContract.Milestone",
          "name": "",
          "type": "tuple"
        }
      ],
      "stateMutability": "view",
      "type": "function"
    },
    {
      "inputs": [
        {
          "internalType": "uint256",
          "name": "milestoneId",
          "type": "uint256"
        }
      ],
      "name": "getMilestoneState",
      "outputs": [
        {
          "internalType": "enum EscrowContract.State",
          "name": "",
          "type": "uint8"
        }
      ],
      "stateMutability": "view",
      "type": "function"
    },
    {
      "inputs": [
        {
          "internalType": "uint256",
          "name": "milestoneId",
          "type": "uint256"
        }
      ],
      "name": "getTimeoutRefund",
      "outputs": [],
      "stateMutability": "nonpayable",
      "type": "function"
    },
    {
      "inputs": [],
      "name": "getTotalMilestones",
      "outputs": [
        {
          "internalType": "uint256",
          "name": "",
          "type": "uint256"
        }
      ],
      "stateMutability": "view",
      "type": "function"
    },
    {
      "inputs": [],
      "name": "juryContractAddress",
      "outputs": [
        {
          "internalType": "address",
          "name": "",
          "type": "address"
        }
      ],
      "stateMutability": "view",
      "type": "function"
    },
    {
      "inputs": [],
      "name": "milestoneCount",
      "outputs": [
        {
          "internalType": "uint256",
          "name": "",
          "type": "uint256"
        }
      ],
      "stateMutability": "view",
      "type": "function"
    },
    {
      "inputs": [
        {
          "internalType": "uint256",
          "name": "",
          "type": "uint256"
        }
      ],
      "name": "milestones",
      "outputs": [
        {
          "internalType": "address",
          "name": "client",
          "type": "address"
        },
        {
          "internalType": "address",
          "name": "freelancer",
          "type": "address"
        },
        {
          "internalType": "bytes32",
          "name": "milestoneHash",
          "type": "bytes32"
        },
        {
          "internalType": "uint256",
          "name": "deadline",
          "type": "uint256"
        },
        {
          "internalType": "uint256",
          "name": "amount",
          "type": "uint256"
        },
        {
          "internalType": "bytes32",
          "name": "evidenceHash",
          "type": "bytes32"
        },
        {
          "internalType": "string",
          "name": "ipfsCID",
          "type": "string"
        },
        {
          "internalType": "uint256",
          "name": "score",
          "type": "uint256"
        },
        {
          "internalType": "string",
          "name": "verdict",
          "type": "string"
        },
        {
          "internalType": "enum EscrowContract.State",
          "name": "state",
          "type": "uint8"
        },
        {
          "internalType": "uint256",
          "name": "createdAt",
          "type": "uint256"
        },
        {
          "internalType": "uint256",
          "name": "fundedAt",
          "type": "uint256"
        },
        {
          "internalType": "uint256",
          "name": "submittedAt",
          "type": "uint256"
        },
        {
          "internalType": "uint256",
          "name": "resolvedAt",
          "type": "uint256"
        }
      ],
      "stateMutability": "view",
      "type": "function"
    },
    {
      "inputs": [],
      "name": "oracleAddress",
      "outputs": [
        {
          "internalType": "address",
          "name": "",
          "type": "address"
        }
      ],
      "stateMutability": "view",
      "type": "function"
    },
    {
      "inputs": [],
      "name": "owner",
      "outputs": [
        {
          "internalType": "address",
          "name": "",
          "type": "address"
        }
      ],
      "stateMutability": "view",
      "type": "function"
    },
    {
      "inputs": [
        {
          "internalType": "uint256",
          "name": "milestoneId",
          "type": "uint256"
        },
        {
          "internalType": "uint256",
          "name": "score",
          "type": "uint256"
        },
        {
          "internalType": "bytes",
          "name": "signature",
          "type": "bytes"
        }
      ],
      "name": "postVerificationResult",
      "outputs": [],
      "stateMutability": "nonpayable",
      "type": "function"
    },
    {
      "inputs": [
        {
          "internalType": "uint256",
          "name": "milestoneId",
          "type": "uint256"
        }
      ],
      "name": "raiseDispute",
      "outputs": [],
      "stateMutability": "nonpayable",
      "type": "function"
    },
    {
      "inputs": [
        {
          "internalType": "uint256",
          "name": "milestoneId",
          "type": "uint256"
        }
      ],
      "name": "releasePayment",
      "outputs": [],
      "stateMutability": "nonpayable",
      "type": "function"
    },
    {
      "inputs": [],
      "name": "renounceOwnership",
      "outputs": [],
      "stateMutability": "nonpayable",
      "type": "function"
    },
    {
      "inputs": [
        {
          "internalType": "uint256",
          "name": "milestoneId",
          "type": "uint256"
        },
        {
          "internalType": "bool",
          "name": "releaseToFreelancer",
          "type": "bool"
        }
      ],
      "name": "resolveDispute",
      "outputs": [],
      "stateMutability": "nonpayable",
      "type": "function"
    },
    {
      "inputs": [
        {
          "internalType": "address",
          "name": "_newJury",
          "type": "address"
        }
      ],
      "name": "setJuryContractAddress",
      "outputs": [],
      "stateMutability": "nonpayable",
      "type": "function"
    },
    {
      "inputs": [
        {
          "internalType": "address",
          "name": "_newOracle",
          "type": "address"
        }
      ],
      "name": "setOracleAddress",
      "outputs": [],
      "stateMutability": "nonpayable",
      "type": "function"
    },
    {
      "inputs": [
        {
          "internalType": "uint256",
          "name": "milestoneId",
          "type": "uint256"
        },
        {
          "internalType": "bytes32",
          "name": "evidenceHash",
          "type": "bytes32"
        },
        {
          "internalType": "string",
          "name": "ipfsCID",
          "type": "string"
        }
      ],
      "name": "submitWork",
      "outputs": [],
      "stateMutability": "nonpayable",
      "type": "function"
    },
    {
      "inputs": [
        {
          "internalType": "address",
          "name": "newOwner",
          "type": "address"
        }
      ],
      "name": "transferOwnership",
      "outputs": [],
      "stateMutability": "nonpayable",
      "type": "function"
    },
    {
      "stateMutability": "payable",
      "type": "receive"
    }
  ],
  "bytecode": "0x60806040523480156200001157600080fd5b506040516200290f3803806200290f8339810160408190526200003491620001f1565b60017f9b779b17422d0df92223018b32b4d1fa46e071723d6817e2486d003becc55f005533806200008057604051631e4fbdf760e01b8152600060048201526024015b60405180910390fd5b6200008b8162000184565b506001600160a01b038216620000f05760405162461bcd60e51b815260206004820152602360248201527f457363726f77436f6e74726163743a207a65726f206f7261636c65206164647260448201526265737360e81b606482015260840162000077565b6001600160a01b038116620001525760405162461bcd60e51b815260206004820152602160248201527f457363726f77436f6e74726163743a207a65726f206a757279206164647265736044820152607360f81b606482015260840162000077565b600380546001600160a01b039384166001600160a01b0319918216179091556004805492909316911617905562000229565b600080546001600160a01b038381166001600160a01b0319831681178455604051919092169283917f8be0079c531659141344cd1fd0a4f28419497f9722a3daafe3b4186f6b6457e09190a35050565b80516001600160a01b0381168114620001ec57600080fd5b919050565b600080604083850312156200020557600080fd5b6200021083620001d4565b91506200022060208401620001d4565b90509250929050565b6126d680620002396000396000f3fe6080604052600436106101395760003560e01c806373a482e9116100ab578063a89ae4ba1161006f578063a89ae4ba146103c0578063b9e9c8b4146103e0578063e55e8056146103f5578063e89e4ed61461040a578063f2fde38b14610444578063f9b53b2a1461046457600080fd5b806373a482e91461032f57806388685cd9146103425780638cdc0035146103625780638da5cb5b14610382578063a5c1674e146103a057600080fd5b806334b25ee2116100fd57806334b25ee2146102855780634c69c00f146102a55780635a7da884146102c55780635cacf245146102da578063620fae50146102fa578063715018a61461031a57600080fd5b80630681ca55146101a857806310ec7568146101d15780631236fcaf146102095780632442e1cb146102365780632b0fcac41461026357600080fd5b366101a35760405162461bcd60e51b815260206004820152602f60248201527f457363726f77436f6e74726163743a207573652066756e644d696c6573746f6e60448201526e0ca505240e8de40e6cadcc8408aa89608b1b60648201526084015b60405180910390fd5b600080fd5b3480156101b457600080fd5b506101be60025481565b6040519081526020015b60405180910390f35b3480156101dd57600080fd5b506004546101f1906001600160a01b031681565b6040516001600160a01b0390911681526020016101c8565b34801561021557600080fd5b50610229610224366004611f6a565b610484565b6040516101c89190611fbb565b34801561024257600080fd5b50610256610251366004611f6a565b6104c6565b6040516101c8919061200f565b34801561026f57600080fd5b5061028361027e366004612123565b610755565b005b34801561029157600080fd5b506102836102a0366004612145565b61080f565b3480156102b157600080fd5b506102836102c0366004612123565b610a5c565b3480156102d157600080fd5b506002546101be565b3480156102e657600080fd5b506102836102f53660046121c3565b610b16565b34801561030657600080fd5b506102836103153660046121c3565b610e74565b34801561032657600080fd5b50610283611136565b61028361033d366004611f6a565b61114a565b34801561034e57600080fd5b5061028361035d366004611f6a565b61134b565b34801561036e57600080fd5b5061028361037d366004611f6a565b611544565b34801561038e57600080fd5b506000546001600160a01b03166101f1565b3480156103ac57600080fd5b506102836103bb366004611f6a565b61179b565b3480156103cc57600080fd5b506003546101f1906001600160a01b031681565b3480156103ec57600080fd5b506101be602d81565b34801561040157600080fd5b506101be604b81565b34801561041657600080fd5b5061042a610425366004611f6a565b611920565b6040516101c89e9d9c9b9a99989796959493929190612216565b34801561045057600080fd5b5061028361045f366004612123565b611aad565b34801561047057600080fd5b506101be61047f3660046122b3565b611aeb565b60008160025481106104a85760405162461bcd60e51b815260040161019a906122e6565b60008381526001602052604090206009015460ff1691505b50919050565b610539604080516101c08101825260008082526020820181905291810182905260608082018390526080820183905260a0820183905260c0820181905260e08201839052610100820152906101208201908152602001600081526020016000815260200160008152602001600081525090565b81600254811061055b5760405162461bcd60e51b815260040161019a906122e6565b60008381526001602081815260409283902083516101c08101855281546001600160a01b03908116825293820154909316918301919091526002810154928201929092526003820154606082015260048201546080820152600582015460a082015260068201805491929160c0840191906105d59061232e565b80601f01602080910402602001604051908101604052809291908181526020018280546106019061232e565b801561064e5780601f106106235761010080835404028352916020019161064e565b820191906000526020600020905b81548152906001019060200180831161063157829003601f168201915b50505050508152602001600782015481526020016008820180546106719061232e565b80601f016020809104026020016040519081016040528092919081815260200182805461069d9061232e565b80156106ea5780601f106106bf576101008083540402835291602001916106ea565b820191906000526020600020905b8154815290600101906020018083116106cd57829003601f168201915b5050509183525050600982015460209091019060ff16600881111561071157610711611f83565b600881111561072257610722611f83565b8152600a8201546020820152600b8201546040820152600c8201546060820152600d909101546080909101529392505050565b61075d611d38565b6001600160a01b0381166107b35760405162461bcd60e51b815260206004820152601c60248201527f457363726f77436f6e74726163743a207a65726f206164647265737300000000604482015260640161019a565b6004546040516001600160a01b038084169216907f774498d3979d207f0bb1be3e7e9cd9ea5be0112116058a0938f056e05b5439f090600090a3600480546001600160a01b0319166001600160a01b0392909216919091179055565b6004546001600160a01b0316331461086f5760405162461bcd60e51b815260206004820152602f602482015260008051602061266183398151915260448201526e19481a9d5c9e4818dbdb9d1c9858dd608a1b606482015260840161019a565b8160025481106108915760405162461bcd60e51b815260040161019a906122e6565b8260058060008381526001602052604090206009015460ff1660088111156108bb576108bb611f83565b146108d85760405162461bcd60e51b815260040161019a90612362565b6108e0611d65565b60008581526001602052604081206004810180549083905560098201805460ff1916600617905542600d8301559091866109245782546001600160a01b0316610933565b60018301546001600160a01b03165b90506000816001600160a01b03168360405160006040518083038185875af1925050503d8060008114610982576040519150601f19603f3d011682016040523d82523d6000602084013e610987565b606091505b50509050806109fe5760405162461bcd60e51b815260206004820152603960248201527f457363726f77436f6e74726163743a20455448207472616e7366657220696e2060448201527f64697370757465207265736f6c7574696f6e206661696c656400000000000000606482015260840161019a565b887f5a87909bff68caaaaf0b3fd9c74eeccc928832f879315e5c6fb7a73612f26c0c89604051610a32911515815260200190565b60405180910390a250505050610a55600160008051602061268183398151915255565b5050505050565b610a64611d38565b6001600160a01b038116610aba5760405162461bcd60e51b815260206004820152601c60248201527f457363726f77436f6e74726163743a207a65726f206164647265737300000000604482015260640161019a565b6003546040516001600160a01b038084169216907fd3afd1676752459d3aa8b6f73633fac8efd724610da9c4cd8d8e4fa1631841fb90600090a3600380546001600160a01b0319166001600160a01b0392909216919091179055565b6003546001600160a01b03163314610b6f5760405162461bcd60e51b8152602060048201526028602482015260008051602061266183398151915260448201526765206f7261636c6560c01b606482015260840161019a565b836002548110610b915760405162461bcd60e51b815260040161019a906122e6565b8460028060008381526001602052604090206009015460ff166008811115610bbb57610bbb611f83565b14610bd85760405162461bcd60e51b815260040161019a90612362565b6064861115610c355760405162461bcd60e51b815260206004820152602360248201527f457363726f77436f6e74726163743a2073636f7265206d75737420626520302d60448201526203130360ec1b606482015260840161019a565b6040805160208082018a90528183018990528251808303840181526060830190935282519201919091207f19457468657265756d205369676e6564204d6573736167653a0a3332000000006080830152609c82018190529060009060bc016040516020818303038152906040528051906020012090506000610ced8289898080601f016020809104026020016040519081016040528093929190818152602001838380828437600092019190915250611d8192505050565b6003549091506001600160a01b03808316911614610d5e5760405162461bcd60e51b815260206004820152602860248201527f457363726f77436f6e74726163743a20696e76616c6964206f7261636c65207360448201526769676e617475726560c01b606482015260840161019a565b60008a8152600160205260409020600781018a90556060604b8b10610db1575060098101805460ff191660031790556040805180820190915260088152671054141493d5915160c21b6020820152610e1d565b602d8b10610ded575060098101805460ff19166005179055604080518082019091526008815267111254d41555115160c21b6020820152610e1d565b5060098101805460ff191660041790556040805180820190915260088152671491529150d5115160c21b60208201525b60088201610e2b828261240b565b508b7f80aa0239bae5e728934337ec6fde7fd4e7872125f95077ce29ad9440c688ed0a8c83604051610e5e9291906124cb565b60405180910390a2505050505050505050505050565b836002548110610e965760405162461bcd60e51b815260040161019a906122e6565b6000858152600160208190526040909120015485906001600160a01b03163314610f055760405162461bcd60e51b815260206004820152602c602482015260008051602061266183398151915260448201526b3290333932b2b630b731b2b960a11b606482015260840161019a565b610f0d611d65565b600086815260016020819052604090912090600982015460ff166008811115610f3857610f38611f83565b1480610f5c57506004600982015460ff166008811115610f5a57610f5a611f83565b145b80610f7f57506005600982015460ff166008811115610f7d57610f7d611f83565b145b610f9b5760405162461bcd60e51b815260040161019a90612362565b85610ff45760405162461bcd60e51b815260206004820152602360248201527f457363726f77436f6e74726163743a20656d7074792065766964656e636520686044820152620c2e6d60eb1b606482015260840161019a565b836110415760405162461bcd60e51b815260206004820152601e60248201527f457363726f77436f6e74726163743a20656d7074792049504653204349440000604482015260640161019a565b80600301544211156110ac5760405162461bcd60e51b815260206004820152602e60248201527f457363726f77436f6e74726163743a207375626d697373696f6e20646561646c60448201526d1a5b99481a185cc81c185cdcd95960921b606482015260840161019a565b60058101869055600681016110c28587836124ec565b5060098101805460ff1916600217905542600c82015560405187907f5fb75d2ad65acbea291d70d86e016cf354a25e5f95de8c2fc6741e6fd94348799061110e908990899089906125ac565b60405180910390a25061112e600160008051602061268183398151915255565b505050505050565b61113e611d38565b6111486000611eea565b565b80600254811061116c5760405162461bcd60e51b815260040161019a906122e6565b60008281526001602052604090205482906001600160a01b031633146111a45760405162461bcd60e51b815260040161019a906125e2565b8260008060008381526001602052604090206009015460ff1660088111156111ce576111ce611f83565b146111eb5760405162461bcd60e51b815260040161019a90612362565b6111f3611d65565b6000341161125b5760405162461bcd60e51b815260206004820152602f60248201527f457363726f77436f6e74726163743a206d7573742073656e642045544820746f60448201526e2066756e64206d696c6573746f6e6560881b606482015260840161019a565b60008581526001602052604090206003015442106112d15760405162461bcd60e51b815260206004820152602d60248201527f457363726f77436f6e74726163743a206d696c6573746f6e6520646561646c6960448201526c1b99481a185cc81c185cdcd959609a1b606482015260840161019a565b600085815260016020818152604092839020346004820181905560098201805460ff191690941790935542600b820155925191825287917fad6f5443f0021bc2808ac5204f3c96a037dc9406ec9bfdf92a8e81539f04c605910160405180910390a250610a55600160008051602061268183398151915255565b80600254811061136d5760405162461bcd60e51b815260040161019a906122e6565b60008281526001602052604090205482906001600160a01b031633146113a55760405162461bcd60e51b815260040161019a906125e2565b8260038060008381526001602052604090206009015460ff1660088111156113cf576113cf611f83565b146113ec5760405162461bcd60e51b815260040161019a90612362565b6113f4611d65565b6000858152600160208190526040808320600481018054938201549085905560098201805460ff1916600717905542600d830155915190936001600160a01b039092169190829084908381818185875af1925050503d8060008114611475576040519150601f19603f3d011682016040523d82523d6000602084013e61147a565b606091505b50509050806114e55760405162461bcd60e51b815260206004820152603160248201527f457363726f77436f6e74726163743a20455448207472616e7366657220746f20604482015270199c99595b185b98d95c8819985a5b1959607a1b606482015260840161019a565b816001600160a01b0316897fb398ec266cae176bd0a8d43b35200da0bb13c5620ad5e1663abdc3967a4ee50f8560405161152191815260200190565b60405180910390a350505050610a55600160008051602061268183398151915255565b8060025481106115665760405162461bcd60e51b815260040161019a906122e6565b60008281526001602052604090205482906001600160a01b0316331461159e5760405162461bcd60e51b815260040161019a906125e2565b8260018060008381526001602052604090206009015460ff1660088111156115c8576115c8611f83565b146115e55760405162461bcd60e51b815260040161019a90612362565b6115ed611d65565b6000858152600160205260409020600381015442116116625760405162461bcd60e51b815260206004820152602b60248201527f457363726f77436f6e74726163743a20646561646c696e6520686173206e6f7460448201526a081c185cdcd959081e595d60aa1b606482015260840161019a565b60048101805460009182905560098301805460ff1916600817905542600d84015582546040519192916001600160a01b039091169083908381818185875af1925050503d80600081146116d1576040519150601f19603f3d011682016040523d82523d6000602084013e6116d6565b606091505b505090508061173e5760405162461bcd60e51b815260206004820152602e60248201527f457363726f77436f6e74726163743a2074696d656f757420726566756e64207460448201526d1c985b9cd9995c8819985a5b195960921b606482015260840161019a565b82546040518381526001600160a01b039091169089907f829fbe471e183f25f638bb5ce01cdc77aefe8d9184f25c6669ffb546f33cddf39060200160405180910390a3505050610a55600160008051602061268183398151915255565b8060025481106117bd5760405162461bcd60e51b815260040161019a906122e6565b60008281526001602052604090206003600982015460ff1660088111156117e6576117e6611f83565b148061180a57506004600982015460ff16600881111561180857611808611f83565b145b8061182d57506005600982015460ff16600881111561182b5761182b611f83565b145b6118495760405162461bcd60e51b815260040161019a90612362565b80546001600160a01b031633148061186d575060018101546001600160a01b031633145b6118df5760405162461bcd60e51b815260206004820152603b60248201527f457363726f77436f6e74726163743a206f6e6c7920636c69656e74206f72206660448201527f7265656c616e6365722063616e20726169736520646973707574650000000000606482015260840161019a565b60098101805460ff19166005179055604051339084907f84a477df8a28a4276ca6dee4458a06c3015f30c477d9c949ede4e13ff8a552b490600090a3505050565b600160208190526000918252604090912080549181015460028201546003830154600484015460058501546006860180546001600160a01b0398891698909616969495939492939192916119739061232e565b80601f016020809104026020016040519081016040528092919081815260200182805461199f9061232e565b80156119ec5780601f106119c1576101008083540402835291602001916119ec565b820191906000526020600020905b8154815290600101906020018083116119cf57829003601f168201915b505050505090806007015490806008018054611a079061232e565b80601f0160208091040260200160405190810160405280929190818152602001828054611a339061232e565b8015611a805780601f10611a5557610100808354040283529160200191611a80565b820191906000526020600020905b815481529060010190602001808311611a6357829003601f168201915b5050506009840154600a850154600b860154600c870154600d90970154959660ff9093169591945092508e565b611ab5611d38565b6001600160a01b038116611adf57604051631e4fbdf760e01b81526000600482015260240161019a565b611ae881611eea565b50565b60006001600160a01b038416611b535760405162461bcd60e51b815260206004820152602760248201527f457363726f77436f6e74726163743a207a65726f20667265656c616e636572206044820152666164647265737360c81b606482015260840161019a565b336001600160a01b03851603611bc55760405162461bcd60e51b815260206004820152603160248201527f457363726f77436f6e74726163743a20636c69656e7420616e6420667265656c60448201527030b731b2b91036bab9ba103234b33332b960791b606482015260840161019a565b428211611c2b5760405162461bcd60e51b815260206004820152602e60248201527f457363726f77436f6e74726163743a20646561646c696e65206d75737420626560448201526d20696e207468652066757475726560901b606482015260840161019a565b82611c845760405162461bcd60e51b8152602060048201526024808201527f457363726f77436f6e74726163743a20656d707479206d696c6573746f6e65206044820152630d0c2e6d60e31b606482015260840161019a565b60028054906000611c948361262e565b9091555060008181526001602081815260409283902080546001600160a01b031990811633908117835593820180546001600160a01b038c16921682179055600282018990556003820188905560098201805460ff1916905542600a8301558451898152928301889052949550939285917f6a05b6e6a4e6ace7a7261ecb0bdceae0edad1f59fc032480bf84a6f2908c477c910160405180910390a4509392505050565b6000546001600160a01b031633146111485760405163118cdaa760e01b815233600482015260240161019a565b611d6d611f3a565b600260008051602061268183398151915255565b60008151604114611de55760405162461bcd60e51b815260206004820152602860248201527f457363726f77436f6e74726163743a20696e76616c6964207369676e617475726044820152670ca40d8cadccee8d60c31b606482015260840161019a565b60208201516040830151606084015160001a601b811015611e0e57611e0b601b82612647565b90505b8060ff16601b1480611e2357508060ff16601c145b611e815760405162461bcd60e51b815260206004820152602960248201527f457363726f77436f6e74726163743a20696e76616c6964207369676e617475726044820152686520762076616c756560b81b606482015260840161019a565b60408051600081526020810180835288905260ff831691810191909152606081018490526080810183905260019060a0016020604051602081039080840390855afa158015611ed4573d6000803e3d6000fd5b5050506020604051035193505050505b92915050565b600080546001600160a01b038381166001600160a01b0319831681178455604051919092169283917f8be0079c531659141344cd1fd0a4f28419497f9722a3daafe3b4186f6b6457e09190a35050565b6000805160206126818339815191525460020361114857604051633ee5aeb560e01b815260040160405180910390fd5b600060208284031215611f7c57600080fd5b5035919050565b634e487b7160e01b600052602160045260246000fd5b60098110611fb757634e487b7160e01b600052602160045260246000fd5b9052565b60208101611ee48284611f99565b6000815180845260005b81811015611fef57602081850181015186830182015201611fd3565b506000602082860101526020601f19601f83011685010191505092915050565b602081526120296020820183516001600160a01b03169052565b6000602083015161204560408401826001600160a01b03169052565b506040830151606083015260608301516080830152608083015160a083015260a083015160c083015260c08301516101c08060e085015261208a6101e0850183611fc9565b915060e0850151610100818187015280870151915050610120601f1986850301818701526120b88483611fc9565b9350808701519150506101406120d081870183611f99565b86015161016086810191909152860151610180808701919091528601516101a0808701919091529095015193019290925250919050565b80356001600160a01b038116811461211e57600080fd5b919050565b60006020828403121561213557600080fd5b61213e82612107565b9392505050565b6000806040838503121561215857600080fd5b823591506020830135801515811461216f57600080fd5b809150509250929050565b60008083601f84011261218c57600080fd5b50813567ffffffffffffffff8111156121a457600080fd5b6020830191508360208285010111156121bc57600080fd5b9250929050565b600080600080606085870312156121d957600080fd5b8435935060208501359250604085013567ffffffffffffffff8111156121fe57600080fd5b61220a8782880161217a565b95989497509550505050565b6001600160a01b038f811682528e1660208201528c60408201528b60608201528a60808201528960a08201526101c060c0820152600061225a6101c083018b611fc9565b8960e0840152828103610100840152612273818a611fc9565b915050612284610120830188611f99565b856101408301528461016083015283610180830152826101a08301529f9e505050505050505050505050505050565b6000806000606084860312156122c857600080fd5b6122d184612107565b95602085013595506040909401359392505050565b60208082526028908201527f457363726f77436f6e74726163743a206d696c6573746f6e6520646f6573206e6040820152671bdd08195e1a5cdd60c21b606082015260800190565b600181811c9082168061234257607f821691505b6020821081036104c057634e487b7160e01b600052602260045260246000fd5b60208082526028908201527f457363726f77436f6e74726163743a20696e76616c696420737461746520747260408201526730b739b4ba34b7b760c11b606082015260800190565b634e487b7160e01b600052604160045260246000fd5b601f82111561240657600081815260208120601f850160051c810160208610156123e75750805b601f850160051c820191505b8181101561112e578281556001016123f3565b505050565b815167ffffffffffffffff811115612425576124256123aa565b61243981612433845461232e565b846123c0565b602080601f83116001811461246e57600084156124565750858301515b600019600386901b1c1916600185901b17855561112e565b600085815260208120601f198616915b8281101561249d5788860151825594840194600190910190840161247e565b50858210156124bb5787850151600019600388901b60f8161c191681555b5050505050600190811b01905550565b8281526040602082015260006124e46040830184611fc9565b949350505050565b67ffffffffffffffff831115612504576125046123aa565b61251883612512835461232e565b836123c0565b6000601f84116001811461254c57600085156125345750838201355b600019600387901b1c1916600186901b178355610a55565b600083815260209020601f19861690835b8281101561257d578685013582556020948501946001909201910161255d565b508682101561259a5760001960f88860031b161c19848701351681555b505060018560011b0183555050505050565b83815260406020820152816040820152818360608301376000818301606090810191909152601f909201601f1916010192915050565b6020808252602890820152600080516020612661833981519152604082015267194818db1a595b9d60c21b606082015260800190565b634e487b7160e01b600052601160045260246000fd5b60006001820161264057612640612618565b5060010190565b60ff8181168382160190811115611ee457611ee461261856fe457363726f77436f6e74726163743a2063616c6c6572206973206e6f742074689b779b17422d0df92223018b32b4d1fa46e071723d6817e2486d003becc55f00a26469706673582212206572d5fd2b1139bc9437a77afa7c4816bd8e41147f2444484fbaf0f77fb4037564736f6c63430008140033",
  "linkReferences": {},
  "deployedLinkReferences": {}
}